{
  "_format": "hh-sol-artifact-1",
  "contractName": "FHEColorSwitch",
  "sourceName": "contracts/FHEColorSwitch.sol",
  "abi": [
    {
      "inputs": [],
      "name": "ZamaProtocolUnsupported",
      "type": "error"
    },
    {
      "inputs": [
        {
          "internalType": "externalEuint32",
          "name": "cipherScore",
          "type": "bytes32"
        },
        {
          "internalType": "bytes",
          "name": "validationProof",
          "type": "bytes"
        }
      ],
      "name": "addEncryptedScore",
      "outputs": [],
      "stateMutability": "nonpayable",
      "type": "function"
    },
    {
      "inputs": [],
      "name": "confidentialProtocolId",
      "outputs": [
        {
          "internalType": "uint256",
          "name": "",
          "type": "uint256"
        }
      ],
      "stateMutability": "view",
      "type": "function"
    },
    {
      "inputs": [
        {
          "internalType": "address",
          "name": "user",
          "type": "address"
        }
      ],
      "name": "lastScore",
      "outputs": [
        {
          "internalType": "euint32",
          "name": "",
          "type": "bytes32"
        }
      ],
      "stateMutability": "view",
      "type": "function"
    },
    {
      "inputs": [
        {
          "internalType": "address",
          "name": "user",
          "type": "address"
        }
      ],
      "name": "totalScores",
      "outputs": [
        {
          "internalType": "uint256",
          "name": "",
          "type": "uint256"
        }
      ],
      "stateMutability": "view",
      "type": "function"
    },
    {
      "inputs": [
        {
          "internalType": "address",
          "name": "user",
          "type": "address"
        }
      ],
      "name": "viewEncryptedScores",
      "outputs": [
        {
          "internalType": "euint32[]",
          "name": "",
          "type": "bytes32[]"
        }
      ],
      "stateMutability": "view",
      "type": "function"
    }
  ],
  "bytecode": "0x608060405234801561000f575f5ffd5b506100c461001b6100c9565b80517f9e7b61f58c47dc699ac88507c4f5bb9f121c03808c5676a8078fe583e464970080546001600160a01b03199081166001600160a01b039384161790915560208301517f9e7b61f58c47dc699ac88507c4f5bb9f121c03808c5676a8078fe583e46497018054831691841691909117905560408301517f9e7b61f58c47dc699ac88507c4f5bb9f121c03808c5676a8078fe583e46497028054909216921691909117905550565b610238565b604080516060810182525f808252602082018190529181019190915246600103610122575060408051606080820183525f8083526020808401829052928401819052835191820184528082529181018290529182015290565b4662aa36a7036101a1575060408051606080820183525f8083526020808401829052928401528251908101835273f0ffdc93b7e186bc2f8cb3daa75d86d1930a433d81527392c920834ec8941d2c77d188936e1f7a6f49c1279181019190915273be0e383937d564d7ff0bc3b46c51f0bf8d5c311a9181019190915290565b46617a690361021f575060408051606080820183525f8083526020808401829052928401528251908101835273f0ffdc93b7e186bc2f8cb3daa75d86d1930a433d81527392c920834ec8941d2c77d188936e1f7a6f49c1279181019190915273be0e383937d564d7ff0bc3b46c51f0bf8d5c311a9181019190915290565b6040516373cac13b60e01b815260040160405180910390fd5b610651806102455f395ff3fe608060405234801561000f575f5ffd5b5060043610610064575f3560e01c80638927b0301161004d5780638927b030146100b8578063b22d1723146100c0578063eb60db67146100e0575f5ffd5b806315cc51c91461006857806385582eb41461007d575b5f5ffd5b61007b6100763660046104a5565b6100f3565b005b6100a561008b36600461051c565b6001600160a01b03165f9081526020819052604090205490565b6040519081526020015b60405180910390f35b6100a5610170565b6100d36100ce36600461051c565b61017e565b6040516100af9190610549565b6100a56100ee36600461051c565b6101e5565b5f6101338484848080601f0160208091040260200160405190810160405280939291908181526020018383808284375f9201919091525061029192505050565b905061013e816102a7565b50335f81815260208181526040822080546001810182559083529120018290556101699082906102b6565b5050505050565b5f6101796102c8565b905090565b6001600160a01b0381165f90815260208181526040918290208054835181840281018401909452808452606093928301828280156101d957602002820191905f5260205f20905b8154815260200190600101908083116101c5575b50505050509050919050565b6001600160a01b0381165f908152602081905260408120548061024e5760405162461bcd60e51b815260206004820152601260248201527f4e6f2073636f726573207265636f726465640000000000000000000000000000604482015260640160405180910390fd5b6001600160a01b0383165f90815260208190526040902061027060018361058b565b81548110610280576102806105aa565b905f5260205f200154915050919050565b5f61029e838360046102fc565b90505b92915050565b5f6102b2823061041c565b5090565b5f6102c1838361041c565b5090919050565b5f466001036102d75750600190565b4662aa36a7036102e8575061271190565b46617a69036102f757505f1990565b505f90565b7f9e7b61f58c47dc699ac88507c4f5bb9f121c03808c5676a8078fe583e46497015460405163045fc19560e11b81525f917f9e7b61f58c47dc699ac88507c4f5bb9f121c03808c5676a8078fe583e4649700916001600160a01b03909116906308bf832a906103759088903390899089906004016105be565b6020604051808303815f875af1158015610391573d5f5f3e3d5ffd5b505050506040513d601f19601f820116820180604052508101906103b5919061062d565b8154604051630f8e573b60e21b8152600481018390523360248201529193506001600160a01b031690633e395cec906044015f604051808303815f87803b1580156103fe575f5ffd5b505af1158015610410573d5f5f3e3d5ffd5b50505050509392505050565b5f7f9e7b61f58c47dc699ac88507c4f5bb9f121c03808c5676a8078fe583e46497008054604051635ca4b5b160e11b8152600481018690526001600160a01b03858116602483015292935091169063b9496b62906044015f604051808303815f87803b15801561048a575f5ffd5b505af115801561049c573d5f5f3e3d5ffd5b50505050505050565b5f5f5f604084860312156104b7575f5ffd5b83359250602084013567ffffffffffffffff8111156104d4575f5ffd5b8401601f810186136104e4575f5ffd5b803567ffffffffffffffff8111156104fa575f5ffd5b86602082840101111561050b575f5ffd5b939660209190910195509293505050565b5f6020828403121561052c575f5ffd5b81356001600160a01b0381168114610542575f5ffd5b9392505050565b602080825282518282018190525f918401906040840190835b81811015610580578351835260209384019390920191600101610562565b509095945050505050565b818103818111156102a157634e487b7160e01b5f52601160045260245ffd5b634e487b7160e01b5f52603260045260245ffd5b8481526001600160a01b0384166020820152608060408201525f8351806080840152806020860160a085015e5f60a0828501015260a0601f19601f8301168401019150506054831061061e57634e487b7160e01b5f52602160045260245ffd5b82606083015295945050505050565b5f6020828403121561063d575f5ffd5b505191905056fea164736f6c634300081b000a",
  "linkReferences": {},
  "deployedLinkReferences": {}
}